:040000008A11112828
:10000800FE00030E83120313B0000408B1000A08AF
:10001800B2007F08B3008A1126298A1113288A1191
:100028008C268A11D7008A118D268A11D8008A1148
:100038008E268A11D9008A118F268A11DA008A1130
:1000480090268A11DB0083160313B401B5018312CD
:100058000313CE01CF01D001D101D201D301D401C4
:10006800D501D60183018A11D02B831203135508B9
:10007800803AFF0080307F02031D44280430540278
:10008800031C472848285228831603133208153EB4
:1000980084008A1100268A11F2005F288312031354
:1000A8005408573E8400831300080B3E84008A11CD
:1000B80000268A11F200831205140518642868289E
:1000C8008312031385146B28831203138510851874
:1000D8006E287228831203130515752883120313DB
:1000E8000511051978287C288312031307147F2823
:1000F8008312031307100718822886288312031314
:100108008714892883120313871072080139F000B5
:10011800F00E07087006EF39700687007208F000C5
:100128000310700C0139F100F10EF10DF10D070803
:100138007106BF39710687007208F000023003109B
:10014800F00CFF3E031DA32870080139F100F10EE1
:10015800F10DF10D06087106BF39710686007208A7
:10016800F00003300310F00CFF3E031DB6287008A2
:100178000139F100F10E06087106EF3971068600A3
:100188007208F00004300310F00CFF3E031DC7286E
:1001980070080139F100F10DF10D07087106FB39FE
:1001A800710687007208F00005300310F00CFF3E5E
:1001B800031DD92870080139F100F10DF10DF10D79
:1001C80007087106F739710687007208F0000630D3
:1001D8000310F00CFF3E031DEC2870080139F100F4
:1001E800F10CF10C070871067F39710687000829A0
:1001F8008710252907102529051125298510252966
:100208000510D401D50125295508F1005408F0003E
:10021800D40A0319D50A7108003A031914292529A3
:100228007008003A0319FC28013A0319FE28033A1A
:1002380003190029013A03190229073A0319042965
:10024800252908000C1D29292A29C62952085304E2
:10025800031D2F29302938291608D3001508D20084
:1002680083160313B501C3291508CE001608CF005D
:10027800D001D1015208A8005308A900AA01AB0176
:100288004E08AC004F08AD005008AE005108AF0052
:100298002808AC022908031C290F53295429AD0248
:1002A8002A08031C2A0F59295A29AE022B08031CB5
:1002B8002B0F5F296029AF022F08D1002E08D0002C
:1002C8002D08CF002C08CE00831603133508031918
:1002D8006E296F29A229350883120313A800A901E2
:1002E800AA01AB012B08F3002A08F2002908F10043
:1002F8002808F0000030F7000030F600FF30F50065
:10030800FF30F4008A1133258A1170088312031311
:10031800CE07710803110318013E03199429CF076A
:10032800720803110318013E03199B29D0077308AB
:1003380003110318013E0319A229D107831251089A
:10034800A3005008A2004F08A1004E08A0005B08B7
:10035800A800A9012808A4002908A5008A1160237B
:100368008A1183160313B40083120313D201D30135
:1003780083160313B501831203138E018F018312B1
:100388000C11DE290C1CC929CA29D4290130A8005E
:10039800280883160313B507831203130C10DE29EC
:1003A8000B1DD729D829DE29963081008A113920DA
:1003B8008A110B11831203133308FF0032088A00D5
:1003C80031088400300E8300FE0E7E0E09000030D6
:1003D80083160313A3000030A2000030A1000030F0
:1003E800A000831203134408430442044104031980
:1003F800FE29FF295C2A83160313A401A40A132AE1
:100408000130C9000310C10DC20DC30DC40DC90BC5
:10041800062A0130C900490883160313A40783126A
:100428000313C41F182A192A042A01308312C90089
:10043800031083160313A00DA10DA20DA30D8312A3
:100448000313C90B1C2A44084802031D352A430814
:100458004702031D352A42084602031D352A410872
:100468004502031C382A392A4A2A4108C50242088B
:10047800031C420FC6024308031C430FC70244086B
:10048800031C440FC8028316031320140130031001
:100498008312C40CC30CC20CC10CFF3E031D4B2AB3
:1004A800013083160313A402031D5B2A5C2A192A50
:1004B80083160313230883120313C400831603133C
:1004C800220883120313C30083160313210883121F
:1004D8000313C20083160313200883120313C100F9
:1004E8000800972A0A3083120313B4000030B500BD
:1004F800831603132D0883120313B70083160313FF
:100508002C0883120313B6008A11ED248A11831272
:100518000313350883160313AD008312031334083D
:1005280083160313AC002730831603132D021030F3
:1005380003192C020318A12AA22A762A0330AE0036
:100548000030AF002E08573E84000A308312031390
:10055800B4000030B500831603132D08831203136B
:10056800B700831603132C0883120313B6008A11ED
:1005780079258A11831203133408831380000A3003
:10058800B4000030B500831603132D08831203133B
:10059800B700831603132C0883120313B6008A11BD
:1005A800ED248A1183120313350883160313AD0053
:1005B80083120313340883160313AC00FF30AE070D
:1005C8000318AF0AFF30AF07AF1FEB2AEC2AA62AA1
:1005D8000800831603133208A5002507013E84008E
:1005E8008A1100268A11A6008A1100268A11A700FE
:1005F800260883120313B4008316031327088312F3
:100608000313B5000030B51BFF30B600B700510822
:10061800BB005008BA004F08B9004E08B8008A114C
:10062800A5248A11831203133708C4003608C300AF
:100638003508C2003408C1005B0883160313A800FC
:10064800A901AA01AB012B0883120313B700831673
:1006580003132A0883120313B60083160313290809
:1006680083120313B5008316031328088312031398
:10067800B4000030BB007230BA007030B900E0300E
:10068800B8008A11A5248A11831203133708C800F9
:100698003608C7003508C6003408C5008A11EB21A2
:1006A8008A11831203134208CD004108CC004D087B
:1006B800CB004C08CA000800831203132408F0007A
:1006C8002508F1000030F11BFF30F200F300230889
:1006D800F7002208F6002108F5002008F4008A1126
:1006E8003F248A11730883120313A3007208A2001F
:1006F8007108A1007008A0002308031D912B22088F
:10070800031D912B23302102031D8E2B283020023C
:10071800031D8E2B0318912B922B9B2B10308312C9
:100728000313DB001708F03907389700C02B831232
:1007380003132308031DAE2B2208031DAE2B8C3098
:100748002102031DAB2BA0302002031DAB2B031885
:10075800AE2BAF2BB82B043083120313DB00170822
:10076800F03906389700C02B83120313DB01DB0A2C
:100778001708F039053897005B08A600A701250877
:100788002706031DC92B240826060319CC2BCE2BBC
:100798000130CF2B003008008A1154268A118A11A3
:1007A80074268A118A1165268A118A1181268A116E
:1007B80001308A113A268A118312031335088316E9
:1007C8000313B30083120313340883160313B20010
:1007D800320A3304031DF12BF22BF42BB201B301BF
:1007E800B001B101013083160313B0070318B10A31
:1007F8000030B107203030064E3003193106031D92
:10080800062C072C392CB001B1010530350203182C
:100818000E2C0F2C272C34080319132C142C392CCC
:100828008A11ED228A11831203134B0883160313CE
:10083800AD00831203134A0883160313AC008A1110
:1008480075228A11392C003083120313D10000302D
:10085800D0000030CF000030CE00003083160313E4
:10086800AC00AD008A1175228A118A11B5258A114A
:10087800F62B8A1111280030FC000030FB000030F4
:10088800FA000030F9007308720471047004031947
:100898004E2C4F2C9C2CFD01FD0A5F2C0130F800DA
:1008A8000310F00DF10DF20DF30DF80B542C01307F
:1008B800F8007808FD07F31F622C632C522C0130D6
:1008C800F8000310F90DFA0DFB0DFC0DF80B652C63
:1008D80073087702031D7A2C72087602031D7A2C9E
:1008E80071087502031D7A2C70087402031C7D2C94
:1008F8007E2C8D2C7008F4027108031C710FF50210
:100908007208031C720FF6027308031C730FF702B8
:10091800791401300310F30CF20CF10CF00CFF3ECB
:10092800031D8E2C0130FD02031D9B2C9C2C632C77
:100938007C08F3007B08F2007A08F1007908F000DF
:100948000800003083120313C0000030BF000030DD
:10095800BE000030BD00341CB22CB32CCA2C3808A1
:10096800BD07390803110318013E0319BC2CBE0743
:100978003A0803110318013E0319C32CBF073B08AB
:1009880003110318013E0319CA2CC0070130BC002B
:100998000310B80DB90DBA0DBB0DBC0BCC2C013032
:1009A8000310B70CB60CB50CB40CFF3E031DD42CC9
:1009B8003708360435043404031DE32CE42CAF2C2B
:1009C8004008B7003F08B6003E08B5003D08B4002F
:1009D800080083120313B901BA0134083504031956
:1009E800F62CF72C2E2DBB01BB0A052D0130031068
:1009F800B40DB50DFF3E031DFB2C0130B8003808BF
:100A0800BB07B51F082D092DFA2C01300310B90DAD
:100A1800BA0DFF3E031D0A2D35083702031D162D9A
:100A280034083602031C192D1A2D212D3408B6025C
:100A38003508031CB703B702391401300310B50C8D
:100A4800B40CFF3E031D222D0130BB02031D2D2DCA
:100A58002E2D092D3A08B5003908B40008000030D9
:100A6800FC000030FB000030FA000030F900701C78
:100A78003E2D3F2D562D7408F907750803110318EC
:100A8800013E0319482DFA07760803110318013EA1
:100A980003194F2DFB07770803110318013E0319AB
:100AA800562DFC070130F8000310F40DF50DF60D76
:100AB800F70DF80B582D01300310F30CF20CF10C64
:100AC800F00CFF3E031D602D73087204710470045E
:100AD800031D6F2D702D3B2D7C08F3007B08F20061
:100AE8007A08F1007908F00008008312031334082B
:100AF80035040319802D812DB02DB901B90A8F2D28
:100B080001300310B40DB50DFF3E031D852D0130D6
:100B1800B8003808B907B51F922D932D842D3508D4
:100B28003702031D992D34083602031C9C2D9D2D78
:100B3800A32D3408B6023508031CB703B7020130E9
:100B48000310B50CB40CFF3E031DA42D0130B902EF
:100B5800031DAF2DB02D932D3708B5003608B4000E
:100B68000800831203138519BA2DBB2DEB2D5608E7
:100B78000319BF2DC02DEB2DD601013083160313A9
:100B8800B2070318B30A0030B3073308803AFF00EE
:100B980080307F02031DD22D05303202031CD52D73
:100BA800D62DDA2D83160313B201B301831603136E
:100BB800330883120313B500831603133208831214
:100BC8000313B40001308A111F268A11EF2D00305B
:080BD80085190130D600080068
:100C000006308A000408840A820700340334003462
:100C10000434003405340034063400340134003424
:100C2000C034F934A434B034993492348234F83472
:100C30008034903410340834013420340234831268
:100C40000313B6003608831203178D0083120313B3
:100C50003408831203178C00831603170C155530C4
:100C60008D00AA308D008C148C18372E382E342E1F
:100C70000C11080083120313BA003A0883120317F9
:100C80008D00831603170C14831203170C088312AC
:100C90000313B600B7013608B8003708B9003908A1
:100CA000B5003808B4000800831203179E019F01A5
:100CB00038308316031385002030860020308700EB
:100CC0000F088F3960388F000800831203139010CB
:100CD00030309004831603130C14831203130C108A
:100CE0008E018F0110140800831203131708F039C6
:100CF000053897000C11831603130C158B170B176F
:100D000008008316031381110108F83904388100A3
:100D100081128B168B17080001340234033404341B
:020D200001349C
:08400000FF3FFF3FFF3FFF3FC0
:02400E00D130AF
:00000001FF
